:020000040800F2
:100000001004002001010008CD010008C90100080A
:10001000CB01000891010008F10100080000000078
:10002000000000000000000000000000E9010008DE
:100030009301000800000000CF010008EB01000858
:100040001B0100081B0100081B0100081B01000820
:100050001B0100081B0100081B0100081B01000810
:100060001B0100081B0100081B0100081B01000800
:100070001B0100081B0100081B0100081B010008F0
:100080001B0100081B0100081B0100081B010008E0
:100090001B0100081B0100081B0100081B010008D0
:1000A0001B0100081B0100081B0100081B010008C0
:1000B0001B0100081B0100081B0100081B010008B0
:1000C0001B0100081B0100081B0100081B010008A0
:1000D0001B0100081B0100081B0100081B01000890
:1000E0001B0100081B0100081B010008DFF80CD0F1
:1000F00000F018F800480047210200081004002012
:100100000648804706480047FEE7FEE7FEE7FEE7B1
:10011000FEE7FEE7FEE7FEE7FEE7FEE7EF01000889
:10012000ED000008064C074D06E0E06840F00103D2
:1001300094E8070098471034AC42F6D3FFF7DAFF93
:1001400044020008640200080F48816941F400710C
:1001500081610E4A00211160426842600B48001D17
:10016000026842F002020260026842F0010202608C
:10017000064A30321160016841F0010101600168F6
:1001800041F48001016070470010024004240140E6
:10019000FEE770470648816941F004018161054826
:1001A000016821F00F0101600168016070470000E3
:1001B00000100240000801400248816802781144A2
:1001C0008160704704000020FEE7FEE7704770473B
:1001D000044801688907FCD502484C30006880B2A9
:1001E00070470000002401407047FFF7E5BF7047EB
:1001F000FEE702E008C8121F08C1002AFAD17047C2
:100200007047002001E001C1121F002AFBD1704796
:100210004FF0804100224A624A6A8242FCD3704712
:10022000FFF7E5FFFFF7B6FFFFF78EFF044B00BFB8
:10023000FFF7CEFF18806420FFF7EAFFF8E7000021
:1002400000000020640200080000002010000000F0
:10025000F2010008740200081000002000040000F1
:100260000202000800000000010000001000000071
:04027000000000008A
:04000005080000ED02
:00000001FF
