:020000040800F2
:100000001004002001010008610100085D010008E2
:100010005F01000849010008090200080000000013
:100020000000000000000000000000006501000862
:100030004B01000800000000630100086701000890
:100040001B0100081B0100081B0100081B01000820
:100050001B0100081B0100081B0100081B01000810
:100060001B0100081B0100081B0100081B01000800
:100070001B0100081B0100081B0100081B010008F0
:100080001B0100081B0100081B0100081B010008E0
:100090001B0100081B0100081B0100081B010008D0
:1000A0001B0100081B0100081B0100081B010008C0
:1000B0001B0100081B0100081B0100081B010008B0
:1000C0001B0100081B0100081B0100081B010008A0
:1000D0001B0100081B0100081B0100081B01000890
:1000E0001B0100081B0100081B010008DFF80CD0F1
:1000F00000F018F8004800475102000810040020E2
:100100000648804706480047FEE7FEE7FEE7FEE7B1
:10011000FEE7FEE7FEE7FEE7FEE7FEE76B0100080D
:10012000ED000008064C074D06E0E06840F00103D2
:1001300094E8070098471034AC42F6D3FFF7DAFF93
:100140007802000898020008FEE7704702488168BC
:10015000027811448160704700000020FEE7FEE74E
:10016000704770477047FFF7F1BF70470848C16993
:1001700041F00101C1613F21800401854FF6FF710B
:10018000818501210180018AC907FCD070470000E8
:10019000001002401948816941F004018161184949
:1001A0000A6822F070420A600A6842F020420A603F
:1001B000C16941F00201C16112493F200880091D57
:1001C00040F2E73008800F480838018841F01001FC
:1001D00001800C481038018841F4C0410180094970
:1001E000002010310880074901202839088005487F
:1001F00018380188C907FCD0704700000010024081
:100200000008014028040040FEE702E008C8121F71
:1002100008C1002AFAD170477047002001E001C1EF
:10022000121F002AFBD1704710B503464FF47A74B1
:1002300002E0204600F004F85B1E9BB2F9D210BD2C
:100240004FF0804100228A848A8C8242FCD370471E
:10025000FFF78CFFFFF79EFF064D4FF47A760024E0
:100260002C800A20FFF7E0FF641DA4B2B442F7D34C
:10027000F5E7000038040040980200080000002064
:100280000C0000000A020008A40200080C00002074
:10029000040400001A020008010000001000000021
:0402A000000000005A
:04000005080000ED02
:00000001FF
