:020000040800F2
:100000001004002001010008890100088501000892
:100010008701000849010008950100080000000060
:100020000000000000000000000000008D0100083A
:100030004B010008000000008B0100088F01000840
:100040001B0100081B0100081B0100081B01000820
:100050001B0100081B0100081B0100081B01000810
:100060001B0100081B0100081B0100081B01000800
:100070001B0100081B0100081B0100081B010008F0
:100080001B0100081B0100081B0100081B010008E0
:100090001B0100081B0100081B0100081B010008D0
:1000A0001B0100081B0100081B0100081B010008C0
:1000B0001B0100081B0100081B0100081B010008B0
:1000C0001B0100081B0100081B0100081B010008A0
:1000D0001B0100081B0100081B0100081B01000890
:1000E0001B0100081B0100081B010008DFF80CD0F1
:1000F00000F018F800480047B5010008100400207F
:100100000648804706480047FEE7FEE7FEE7FEE7B1
:10011000FEE7FEE7FEE7FEE7FEE7FEE793010008E5
:10012000ED000008064C074D06E0E06840F00103D2
:1001300094E8070098471034AC42F6D3FFF7DAFF93
:10014000C8010008E8010008FEE770470748816918
:1001500041F0100181610648416821F07061416001
:10016000416841F00071416070470000001002409A
:100170000010014002488168027811448160704794
:1001800000000020FEE7FEE7704770477047FFF76A
:10019000F1BF7047FEE702E008C8121F08C1002A3D
:1001A000FAD170477047002001E001C1121F002AF8
:1001B000FBD17047FFF7CAFF0248C16841F4804194
:1001C000C160FAE700100140E801000800000020CB
:1001D0000C00000096010008F40100080C0000204B
:1001E00004040000A6010008010000001000000047
:0401F000000000000B
:04000005080000ED02
:00000001FF
