:020000040800F2
:100000001004002001010008990100089501000872
:1000100097010008490100082902000800000000BB
:100020000000000000000000000000009D0100082A
:100030004B010008000000009B0100089F01000820
:100040001B0100081B0100081B0100081B01000820
:100050001B0100081B0100081B0100081B01000810
:100060001B0100081B0100081B0100081B01000800
:100070001B0100081B0100081B0100081B010008F0
:100080001B0100081B0100081B0100081B010008E0
:100090001B0100081B0100081B0100081B010008D0
:1000A0001B0100081B0100081B0100081B010008C0
:1000B0001B0100081B0100081B0100081B010008B0
:1000C0001B0100081B0100081B0100081B010008A0
:1000D0001B0100081B0100081B0100081B01000890
:1000E0001B0100081B0100081B010008DFF80CD0F1
:1000F00000F018F8004800477102000810040020C2
:100100000648804706480047FEE7FEE7FEE7FEE7B1
:10011000FEE7FEE7FEE7FEE7FEE7FEE7A3010008D5
:10012000ED000008064C074D06E0E06840F00103D2
:1001300094E8070098471034AC42F6D3FFF7DAFF93
:100140009C020008BC020008FEE770470B4881696A
:1001500041F0040181610A48016821F47061016085
:10016000016841F420610160016821F4704101607F
:10017000016841F4804101607047000000100240B6
:10018000000801400248816802781144816070478C
:1001900000000020FEE7FEE7704770477047FFF75A
:1001A000F1BF70470848C16941F00101C1610721F1
:1001B000800401854FF6FF71818501210180018A4C
:1001C000C907FCD0704700000010024000B503468C
:1001D00002E05B1C00F004F818780028F9D100BD9B
:1001E00003490A881206FCD50149091D0880704799
:1001F000004400400A48C16941F40031C161094826
:10020000018840F2413211430180001D018841F410
:1002100000510180018841F0080101807047000011
:100220000010024008440040FEE702E008C8121F28
:1002300008C1002AFAD170477047002001E001C1CF
:10024000121F002AFBD1704710B503464FF47A7491
:1002500002E0204600F004F85B1E9BB2F9D210BD0C
:100260004FF0804100228A848A8C8242FCD37047FE
:10027000FFF76CFFFFF7BEFFFFF794FF4FF47A74B0
:1002800003A0FFF7A3FF2046FFF7DEFFF8E700001B
:10029000537472696E67616263642000BC02000877
:1002A000000000200C0000002A020008C80200081C
:1002B0000C000020040400003A02000801000000C5
:0802C000100000000000000026
:04000005080000ED02
:00000001FF
